:100000000C9468000C9490000C9490000C94900058
:100010000C9490000C9490000C9490000C941A0F87
:100020000C9490000C9490000C9490000C94900010
:100030000C9490000C9490000C9490000C94900000
:100040000C94590D0C9490000C94C90D0C94A30DB4
:100050000C9490000C9490000C9490000C949000E0
:100060000C94FB0D0C9490001F1C1F1E1F1E1F1FC5
:100070001E1F1E1F00000000240027002A00000091
:100080000000250028002B000000000800020100ED
:100090000003040700000000000000000000000052
:1000A00023002600290004040404040404040202BA
:1000B00002020202030303030303010204081020E7
:1000C0004080010204081020010204081020CB0F18
:1000D00011241FBECFEFD8E0DEBFCDBF11E0A0E0FE
:1000E000B1E0ECE8F0E402C005900D92A83DB10744
:1000F000D9F724E0A8EDB1E001C01D92A238B20703
:10010000E1F710E0C8E6D0E004C02197FE010E94AC
:100110003E1EC736D107C9F70E9444100C944420F4
:100120000C940000CF92DF92EF92FF92CF93DF9377
:10013000B0916604A0E08111AB2F8091670490E03C
:10014000880F991FAC0144565F4FC0906C04D0904B
:100150006D04E0906E04F0906F0430E020E0FA014E
:10016000C591D491E881B90190E080E0EB23EA13D6
:100170000AC02F5F3F4F6C157D058E059F0578F3F4
:100180006FEF7FEFCB01DF91CF91FF90EF90DF908A
:10019000CF900895AF92BF92CF92DF92EF92FF92ED
:1001A0000F931F93CF93DF937C016B015A01FC01E6
:1001B0008081918120915C0430915D04C1E0D0E0A8
:1001C0008217930708F062C09C01220F331FE09151
:1001D0005A04F0915B04E20FF31F00811181EC01DE
:1001E000C095D095C170DD272CE93FEF80FF02C09C
:1001F00024E630E02A0D3B1DC90163E470E00E9453
:10020000231E0617170750F0C90168E270E00E942C
:10021000231E6F5F7F4F6017710768F52A0D3B1D26
:10022000C90163E470E00E94231E0617170750F00F
:10023000C90168E270E00E94231E6F5F7F4F601764
:10024000710780F52A0D3B1DC90163E470E00E942F
:10025000231E0617170760F0C90168E270E00E94CC
:10026000231E6F5F7F4F23E030E06017710728F493
:10027000CFEFDFEF0BC021E030E0F601808191810C
:100280000196821793078CF491838083CE01DF91CE
:10029000CF911F910F91FF90EF90DF90CF90BF9083
:1002A000AF90089522E030E0E8CF11821082F7018C
:1002B000808191810196E8CF833081F028F48130EC
:1002C00099F08230A9F008958730A9F08830C9F0FC
:1002D0008430B1F4809180008F7D03C080918000D4
:1002E0008F7780938000089584B58F7784BD0895BB
:1002F00084B58F7DFBCF8091B0008F778093B00065
:1003000008958091B0008F7DF9CFCF93DF93282F90
:1003100030E0F901E857FF4F8491F901E654FF4FAF
:10032000D491F901EA55FF4FC491CC23A1F081117A
:100330000E945C01EC2FF0E0EE0FFF1FE456FF4F30
:10034000A591B491EC91ED2381E090E009F480E077
:10035000DF91CF91089580E090E0FACF1F93CF9383
:10036000DF93282F30E0F901E857FF4F8491F9011E
:10037000E654FF4FD491F901EA55FF4FC491CC23C5
:10038000A9F0162F81110E945C01EC2FF0E0EE0F16
:10039000FF1FE258FF4FA591B4918FB7F894EC91ED
:1003A000111108C0D095DE23DC938FBFDF91CF9170
:1003B0001F910895DE2BF8CFCF93DF9390E0FC01DF
:1003C000E654FF4F24918A559F4FFC018491882366
:1003D000C9F090E0880F991FFC01EC58FF4FA591E0
:1003E000B491FC01E258FF4FC591D49161110DC049
:1003F0009FB7F8948C91209582238C938881282331
:1004000028839FBFDF91CF910895623051F49FB749
:10041000F8943C91822F809583238C93E8812E2B36
:10042000EFCF8FB7F894EC912E2B2C938FBFEACFA0
:100430008E50806480937C0080917A0080648093E9
:100440007A0080917A0086FDFCCF809178009091AF
:10045000790008953FB7F8948091C8029091C9023D
:10046000A091CA02B091CB0226B5A89B05C02F3F30
:1004700019F00196A11DB11D3FBFBA2FA92F982FCA
:100480008827BC01CD01620F711D811D911D42E0C5
:10049000660F771F881F991F4A95D1F708958F928D
:1004A0009F92AF92BF92CF92DF92EF92FF924B0159
:1004B0005C010E942A026B017C010E942A026C19D5
:1004C0007D098E099F09683E734081059105A8F357
:1004D00021E0821A9108A108B10888EEC80E83E0D5
:1004E000D81EE11CF11C81149104A104B10429F768
:1004F000FF90EF90DF90CF90BF90AF909F908F9044
:1005000008952FB7F8946091C4027091C50280914C
:10051000C6029091C7022FBF0895CF92DF92EF924B
:10052000FF920F931F93CF93DF93CDB7DEB7C054E5
:10053000D1400FB6F894DEBF0FBECDBF0E9481023E
:10054000009168041091690420916A0430916B0451
:100550006B017C01C01AD10AE20AF30A97018601F5
:10056000003D17402105310590F480917004C05C76
:10057000DE4F0FB6F894DEBF0FBECDBFDF91CF9137
:100580001F910F91FF90EF90DF90CF9008956093AF
:1005900068047093690480936A0490936B041092CA
:1005A000630410926204109261041092600410922D
:1005B0005F0462E0809164040E94DC0161E070E00D
:1005C00080E090E00E944F0261E0809164040E940C
:1005D000DC0160E0809164040E94AE0180916504BA
:1005E0008551823020F58BE291E10197F1F762E0CD
:1005F000809164040E94DC018091710490E082305B
:10060000910538F0880F991F880F991F059701975A
:10061000F1F7F89480E00E9492006F3F7F4F8F4F78
:100620009F4F61F410927004789480E0A0CF64E151
:1006300070E080E090E00E944F02D9CF81E00E94FC
:1006400092006F3F7F4F8F4F9F4F61F38E010F5F7F
:100650001F4F6E012FEBC21A2EEFD20A780180E0F5
:100660000E949200F701608371838283938381E00B
:100670000E949200F7016483758386839783F8E074
:10068000EF0EF11CEC14FD0451F7789430E020E0FB
:10069000F801C080D180E280F38044815581668179
:1006A0007781FFEFCF16DF06EF06FF0631F04F3FF1
:1006B0008FEF58076807780719F410927004B5CFC8
:1006C000F90183E0F595E7958A95E1F7E15AFB4F4B
:1006D0008081880FC416D506E606F70610F18083E0
:1006E0002F5F3F4F085F1F4F2832310589F6409139
:1006F000630420915F0480916004280F3327331F27
:1007000080916104280F311D80916204820F932F24
:10071000911D99274817190681F681E0809370048E
:1007200026CF8160DCCF08950895AF92BF92CF921B
:10073000DF92EF92FF920F931F93CF93DF936C01A1
:100740007B018B01040F151FEB015E01AE18BF0882
:10075000C017D10759F06991D601ED91FC91019034
:10076000F081E02DC6010995892B79F7C501DF914C
:10077000CF911F910F91FF90EF90DF90CF90BF909E
:10078000AF900895FC01538D448D252F30E0842FC8
:1007900090E0821B930B541710F0CF9608950197A9
:1007A0000895FC01918D828D981761F0A28DAE0F96
:1007B000BF2FB11D5D968C91928D9F5F9F73928F1D
:1007C00090E008958FEF9FEF08950F931F930E947D
:1007D00081026093D4027093D5028093D6029093E5
:1007E000D7028CEC92E00E94D10397FF1DC00E94BB
:1007F00081020091D4021091D5022091D60230914D
:10080000D702601B710B820B930B0091D0021091E9
:10081000D1022091D2023091D30260177107820772
:100820009307F8F28FEF9FEF1F910F910895FC014E
:10083000918D828D981731F0828DE80FF11D858D95
:1008400090E008958FEF9FEF0895FC01918D228D28
:10085000892F90E0805C9F4F821B91098F739927AD
:1008600008958CEC92E00E94250421E0892B09F484
:1008700020E0822F089580E090E0892B29F00E94EB
:10088000310481110C9400000895FC01A48DA80F7F
:10089000B92FB11DA35ABF4F2C91848D90E00196C2
:1008A0008F739927848FA689B7892C93A089B189E2
:1008B0008C91837080648C93938D848D981306C083
:1008C0000288F389E02D80818F7D80830895EF92E7
:1008D000FF920F931F93CF93DF93EC0181E0888FFA
:1008E0009B8D8C8D98131AC0E889F989808185FFCA
:1008F00015C09FB7F894EE89FF896083E889F9896C
:1009000080818370806480839FBF81E090E0DF916D
:10091000CF911F910F91FF90EF900895F62E0B8DC0
:1009200010E00F5F1F4F0F731127E02E8C8D8E117B
:100930000CC00FB607FCFACFE889F989808185FFE2
:10094000F5CFCE010E944504F1CFEB8DEC0FFD2FCA
:10095000F11DE35AFF4FF0829FB7F8940B8FEA899D
:10096000FB8980818062CFCFCF93DF93EC01888DAC
:100970008823B9F0AA89BB89E889F9898C9185FD1A
:1009800003C0808186FD0DC00FB607FCF7CF8C91A8
:1009900085FFF2CF808185FFEDCFCE010E94450417
:1009A000E9CFDF91CF91089520915002260F332790
:1009B000331F21323105ECF420917402FC0190E0E8
:1009C00080E0243069F082E00895A09150022191E6
:1009D000AC01405D5D4FA40FB52FB11D2C93019666
:1009E000861798F380915002680F6093500280E060
:1009F000089581E008951092740281E08093760258
:100A00001092750261E082E10E94AE0161E083E133
:100A10000E94AE01E9EBF0E080818E7F80838081CF
:100A20008D7F808388E48093B80085E48093BC0048
:100A30000895CF93DF9391E090932F028823B9F02C
:100A4000C091B800D091BA008091BC008A7B80939D
:100A5000BC0060E082E10E94AE0160E083E10E94A0
:100A6000AE010E94FB04D093BA00C093B800DF919E
:100A7000CF9108950895E091A1028091A002E81716
:100A800030F4F0E0E65FFD4F808190E008958FEF55
:100A90009FEF08959091A1028091A0022FEF3FEF68
:100AA000981748F4E92FF0E0E65FFD4F208130E031
:100AB0009F5F9093A102C90108958091A002909137
:100AC000A102891B990B0895CF92DF92EF92FF92BA
:100AD0000F931F93CF93DF937C01CB018A01209169
:100AE0000902222389F0EB016B01C40ED51ECC153F
:100AF000DD0569F06991D701ED91FC910190F081DC
:100B0000E02DC7010995F3CF642F0E94D404C801DA
:100B1000DF91CF911F910F91FF90EF90DF90CF90D9
:100B20000895CF93DF931F92CDB7DEB769832091ED
:100B300009022223F9F020919E02203258F021E090
:100B400030E0FC013383228390E080E00F90DF915E
:100B5000CF91089580919F02E82FF0E0E751FE4F7A
:100B6000998190838F5F80939F0280939E0281E0A2
:100B700090E0ECCF61E0CE0101960E94D404F7CF63
:100B8000CF92DF92EF92FF920F931F93CF93DF9359
:100B9000FC01C48121E020930902C093E801109276
:100BA0009F0210929E028385682B89E693E00E9443
:100BB0009105D0919E02D13208F092C00E942A0283
:100BC0006B017C0180917402811165C082E0809389
:100BD000740281E0809376028FEF8093730210920B
:100BE0009802D0939702A9EEB1E0E7E7F2E080E047
:100BF000D81385C01092990280919902CC0FC82B0E
:100C0000C093990280917502813009F07CC01092E6
:100C100075020E942A026B017C01809199028093E7
:100C2000BB0080912B0290912C02A0912D02B091DB
:100C30002E02892B8A2B8B2B99F00E942A0200917D
:100C40002B0210912C0220912D0230912E026C1952
:100C50007D098E099F090617170728073907E0F154
:100C60008091BC0083FDD9CF85EC8093BC000E94AD
:100C70002A026B017C0180917402823009F445C024
:100C8000809173028F3F61F180917302803241F154
:100C90008091730225C080912B0290912C02A0912B
:100CA0002D02B0912E02892B8A2B8B2B09F48ACF2F
:100CB0000E942A0200912B0210912C0220912D02F9
:100CC00030912E026C197D098E099F0906171707AE
:100CD0002807390708F076CF80912A020E9419056B
:100CE00010929F0210929E0210920902DF91CF9102
:100CF0001F910F91FF90EF90DF90CF9008959D91FD
:100D000091938F5F75CF85EEB0CF80912B0290913C
:100D10002C02A0912D02B0912E02892B8A2B8B2BB5
:100D200009F4A9CF0E942A0200912B0210912C02F3
:100D300020912D0230912E026C197D098E099F0998
:100D4000061717072807390708F095CFC5CF08956C
:100D500090E080E00895FC0101900020E9F73197D0
:100D6000AF01481B590BBC0182E794E00C9495033A
:100D70008F929F92AF92BF920F931F93CF93DF9367
:100D8000CDB7DEB7A1970FB6F894DEBF0FBECDBFCB
:100D900019A2423008F44AE08E010F5D1F4F842EE5
:100DA000912CB12CA12CA50194010E946D1CE62F61
:100DB000B901CA01EA30F4F4E05DD801EE938D0187
:100DC000232B242B252B79F790E080E0109719F046
:100DD000CD010E94AB06A1960FB6F894DEBF0FBE00
:100DE000CDBFDF91CF911F910F91BF90AF909F909A
:100DF0008F900895E95CE1CF0C94AB06682F70E00A
:100E000090E080E04AE00C94B8064F925F926F92B7
:100E10007F928F929F92AF92BF92CF92DF92EF928A
:100E2000FF920F931F93CF93DF93F82FE62FC0907D
:100E30005A04D0905B044A0184E6880E911C83E436
:100E4000E82EF12CC401B7010E94231E5B01C8E209
:100E5000D0E0C401BE010E94231E2B018FEF481A6F
:100E6000580A24563109C901B7010E94231E4B01BB
:100E7000C901BE010E94231E3B018FEF681A780A48
:100E800004561109C801B7010E94231E9B01C80125
:100E9000BE010E94231E6F5F7F4FFF0FFE0F80E099
:100EA00090E0DC01CE2FD0E0CC0FDD1FCC0DDD1D9E
:100EB000488159814A155B05B8F144165506A0F1E1
:100EC000C1E0CE0FD0E0CC0FDD1FCC0DDD1D488181
:100ED00059814815590528F16416750638F1880FAF
:100EE000991FAA1FBB1F8160EE5FEF13DBCF8093BA
:100EF000510490935204A0935304B093540481E09E
:100F0000DF91CF911F910F91FF90EF90DF90CF90E5
:100F1000BF90AF909F908F907F906F905F904F9019
:100F200008954217530710F480E0EACF641775075D
:100F3000D8F3880F991FAA1FBB1FD6CF0F931F93FB
:100F4000CF938C01C62F0E94C0056C2F6460C8012E
:100F50000E94C0056C2F6B7FC8010E94C00583EC06
:100F600090E00197F1F7CF911F910F9108950F93A2
:100F70001F93CF93DF938C01D62FC42F607F642BF8
:100F80000E949E0780E1D89FB00111246C2BC801FC
:100F9000DF91CF911F910F910C949E0740E061E08B
:100FA00082E794E00E94B7078BE39FE10197F1F796
:100FB00008959093A8028093A7020E94CE071092F2
:100FC000A9021092AA021092AB021092AC021092E7
:100FD000A3021092A4021092A5021092A6021092EF
:100FE000A2020895CF93DF93CDB7DEB728970FB64F
:100FF000F894DEBF0FBECDBF98E0E7E0F1E0DE0180
:10100000119601900D929A95E1F790917A049817B4
:1010100008F48FEF90E0880F991F21E030E02C0F4B
:101020003D1F820F931FFC016081606840E082E7F2
:1010300094E028960FB6F894DEBF0FBECDBFDF91C7
:10104000CF910C94B70741E00E94B70781E090E090
:1010500008954F925F926F927F928F929F92AF927C
:10106000BF92CF92DF92EF92FF920F931F93CF9395
:101070006B017C01742EAC019B010E94121E88231F
:1010800099F08FE391E0CF911F910F91FF90EF9036
:10109000DF90CF90BF90AF909F908F907F906F9098
:1010A0005F904F900C94AB0646015701E894B7F857
:1010B0002FEF3FEF4FE75FE7C501B4010E94121E1B
:1010C00081110DC02FEF3FEF4FE75FE7C501B4017E
:1010D0000E94391B18161CF483E491E0D4CF2FEF43
:1010E0003FEF4FE75FE4C701B6010E940D1E1816DF
:1010F0001CF487E491E0C7CF2FEF3FEF4FE75FECA1
:10110000C701B6010E94391B87FDF3CF20E030E014
:10111000A901C701B6010E94391B10E000E087FF5A
:101120000CC041E06DE282E794E00E94B707F7FA55
:10113000F094F7F8F09401E010E0C0E060E070E0B7
:1011400080E09FE37C1641F020E030E040E251E493
:101150000E946C1DCF5FF6CFA70196010E94001D73
:101160004B015C010E94DE1D2B013C014AE00E9404
:10117000B806080F191FCC23C9F1C301B2010E94A0
:101180003E1B9B01AC01C501B4010E94FF1C4B0139
:101190005C0141E06EE282E794E00E94B7070F5FD6
:1011A0001F4FC15018F120E030E040E251E4C5018A
:1011B000B4010E949F1B2B013C010E94DE1D4B01CC
:1011C000B12CA12C4AE0C501B4010E94B806080F59
:1011D000191FC501B4010E943E1B9B01AC01C30154
:1011E000B2010E94FF1C4B015C01DBCFC801CF9113
:1011F0001F910F91FF90EF90DF90CF90BF90AF9035
:101200009F908F907F906F905F904F9008958F92F6
:101210009F92AF92BF92CF92DF92EF92FF92CF93C5
:10122000C090E001D090E101E090E201F090E30194
:101230004B015C018C189D08AE08BF0820ED82169A
:1012400027E09206A104B10428F4CD28CE28CF28A7
:1012500009F0C3C06093E0017093E1018093E20163
:101260009093E3010E948D02882349F080916504E8
:101270008B3028F08D3050F085518230C8F1812CB0
:10128000912C20ECA22E2FE7B22E1EC0609160049C
:1012900070E090E080E00E94401B2DEC3CEC4CECB8
:1012A0005DE30E949F1B6B017C0160915F0470E015
:1012B00090E080E00E94401B9B01AC01C701B60199
:1012C0000E94001D4B015C010E948D02882309F4DD
:1012D00084C0809165048C3009F4B4C0D8F48B309C
:1012E00091F1C12CD12C80ECE82E8FE7F82E55C05F
:1012F00060915F047091600476276727762790E0FD
:1013000080E00E943E1B2DEC3CEC4CEC5DE30E9427
:101310009F1BD8CF8551823020F7C09161046C2F7C
:1013200070E0762F662766277F7780916204682BAE
:1013300090E080E00E943E1B2DEC3CEC4CEC5DE329
:101340000E949F1B9BC06091610470E090E080E070
:101350000E943E1B6B017C01C0916204C7FF0AC062
:10136000AC019B0160E070E080E89FEB0E94FF1CF5
:101370006B017C01CF706C2F70E090E080E00E94E8
:10138000401B2DEC3CEC4CEC5DE30E949F1BA70145
:1013900096010E94001D6B017C01A5019401C5010D
:1013A000B4010E94121E811118C0A7019601C70145
:1013B000B6010E94121E811110C08092DC01909231
:1013C000DD01A092DE01B092DF01C092D801D0927F
:1013D000D901E092DA01F092DB0180E00E94F2078D
:1013E0008BE491E00E94FC066091D8017091D901D4
:1013F0008091DA019091DB0141E00E94290882E5A9
:1014000091E00E94FC0681E00E94F20784E591E0F1
:101410000E94FC066091DC017091DD018091DE018B
:101420009091DF0141E00E9429088BE591E0CF9186
:10143000FF90EF90DF90CF90BF90AF909F908F90F4
:101440000C94FC06C09161046C2F70E090E080E089
:101450000E943E1B6B017C01609162046F7070E022
:1014600090E080E00E94401B2DEC3CEC4CEC5DE3F6
:101470000E949F1BA70196010E94001D6B017C0129
:10148000C7FF8BCFF7FAF094F7F8F09486CFCF929E
:10149000DF92EF92FF926C01990FEE08FF08F7FEC2
:1014A00016C041E06DE282E794E00E94B70766272C
:1014B0007727CB016C197D098E099F094AE00E94AC
:1014C000B8060196FF90EF90DF90CF9008954AE024
:1014D000C701B601FF90EF90DF90CF900C94B80653
:1014E0008EE00E94180228E230E0DC010E94371EE4
:1014F0002FEF33E040E050E00E948F1C3093E70173
:101500002093E60180E00E94F2078DE591E00E94C1
:10151000FC0681E00E94F2078091E6019091E701CC
:101520000E94470A8EE691E00C94FC0681E10E943D
:10153000180224E630E0DC010E94371E2FEF33E072
:1015400040E050E00E948F1C3093E5012093E401BD
:1015500080E00E94F2078BE791E00E94FC0681E0A8
:101560000E94F2078091E4019091E5010E94470AF0
:101570008CE891E00C94FC06EF92FF921F93CF93BE
:10158000DF937C01D0E0C0E010E0F70180810E9491
:1015900085010C2E01C0880F0A94EAF7182B61E030
:1015A000F70181810E94AE0160E0F70181810E9414
:1015B000AE012196C830D10541F7812FDF91CF913F
:1015C0001F91FF90EF900895FF920F931F93CF9379
:1015D000DF938C01D62FF42EC0E06D2F6170F801DF
:1015E00080810E94AE0161E0F80181810E94AE011C
:1015F000C73039F4FF2029F060E0F80180810E94B3
:10160000DC0160E0F80181810E94AE01D695CF5FD8
:10161000C83019F7DF91CF911F910F91FF90089576
:101620001F93CF93DF93EC01162F60E08A810E9415
:10163000AE0161E08A810E94DC0160E089810E9444
:10164000AE0161E089810E94DC0161E088810E9435
:10165000DC0161E08A810E94AE018BE090E001979D
:10166000F1F7412F4170612FCE01DF91CF911F9192
:101670000C94E40AEF92FF920F931F93CF93DF93A2
:101680006FEB80914804909149040E94100B809167
:101690004804909149040E94BC0A8F77282F30E0BB
:1016A000E4E035952795EA95E1F7922F990F990F88
:1016B000122F191B110F180F8091480490914904A3
:1016C0000E94BC0A282F30E0F4E035952795FA9562
:1016D000E1F7922F990F990F022F091B000F080FA6
:1016E00080914804909149040E94BC0A86FFBBC0C7
:1016F000982F9F71292F30E074E0359527957A95C2
:10170000E1F7322F330F330FC22FC31BCC0FC90F9A
:1017100085FDC45F80914804909149040E94BC0AF1
:10172000282F30E094E0359527959A95E1F7922F90
:10173000990F990FF22EF91AFF0CF80E80914804B8
:10174000909149040E94BC0A282F30E044E035956E
:1017500027954A95E1F7922F990F990FE22EE91AF2
:10176000EE0CE80E80914804909149040E94BC0A56
:1017700080914804909149040E94BC0A282F30E0CF
:1017800054E0359527955A95E1F7922F990F990FC7
:10179000622F691B660FD62FD80F80914804909155
:1017A00049040E94BC0AE0914804F091490460E0B9
:1017B00082810E94AE018BE090E00197F1F780E01A
:1017C0000E94F2076D2F70E06053784F90E080E048
:1017D0004AE00E94B80689E991E00E94FC0689E08F
:1017E0008E1520F08BE991E00E94FC068E2D0E9460
:1017F000FE0689E991E00E94FC0689E08F1520F041
:101800008BE991E00E94FC068F2D0E94FE0681E08C
:101810000E94F207CA3020F48BE991E00E94FC0696
:101820008C2F0E94FE068DE991E00E94FC060A3092
:1018300020F48BE991E00E94FC06802F0E94FE06B6
:101840008DE991E00E94FC061A3020F48BE991E0CA
:101850000E94FC06812FDF91CF911F910F91FF9085
:10186000EF900C94FE06C82FD0E064E0D595C795A4
:101870006A95E1F79C2F990F990FC91BCC0FC80FE0
:1018800049CFFC0180819181009711F00C94F11AED
:1018900060E070E0CB0108950F931F93CF93DF9327
:1018A000EC0188819981009759F02A813B812617A4
:1018B000370730F081E0DF91CF911F910F910895AC
:1018C0008B016F5F7F4F0E94691F009759F09983CA
:1018D00088831B830A832C813D81232B59F7FC01CC
:1018E0001082E8CF80E0E7CFCF93DF93EC018881CF
:1018F0009981009711F00E94E01E198218821D82C2
:101900001C821B821A82DF91CF910895EF92FF9281
:101910000F931F93CF93DF938C017B01EB01099011
:101920000020E9F72197C61BD70BBE010E944C0C83
:10193000811109C0C801DF91CF911F910F91FF90D4
:10194000EF900C94740CF801D583C483B7018081A7
:101950009181DF91CF911F910F91FF90EF900C94A7
:101960002F209F92AF92BF92CF92DF92EF92FF9281
:101970000F931F93CF93DF93EC016B015A01790111
:101980002417350720F48B2D5901E42EF82E1982E7
:1019900018821B821A821D821C826AE771E0CE01C6
:1019A0000E94860CD60114960D911C91A016B106CA
:1019B00058F5E016F10608F48701D601ED91FC9187
:1019C0001197E00FF11F90801082ED90FC90EA0CCF
:1019D000FB1CE114F10471F0F70101900020E9F71C
:1019E00031975F01AE18BF08B501CE010E944C0CC3
:1019F000811117C0CE010E94740CF6018081918183
:101A0000080F191FD8019C92CE01DF91CF911F9131
:101A10000F91FF90EF90DF90CF90BF90AF909F908D
:101A20000895BD82AC82B701888199810E942F20E0
:101A3000E4CFFC0180819181009711F00C94E01EAD
:101A4000089585ED8093BC0080912B0290912C022B
:101A5000A0912D02B0912E020796A11DB11D23E089
:101A6000B695A795979587952A95D1F72091BC00B3
:101A700024FD03C010927402089540912B025091EE
:101A80002C0260912D0270912E02452B462B472B84
:101A900069F30097A105B10541F02AE22A95F1F713
:101AA00000C00197A109B109E1CF80912A020C94ED
:101AB00019051F920F920FB60F9211242F933F9387
:101AC0008F939F93AF93BF938091C4029091C5026F
:101AD000A091C602B091C7023091C30223E0230F48
:101AE0002D3758F50196A11DB11D2093C302809397
:101AF000C4029093C502A093C602B093C70280911E
:101B0000C8029091C902A091CA02B091CB0201967D
:101B1000A11DB11D8093C8029093C902A093CA026F
:101B2000B093CB02BF91AF919F918F913F912F9135
:101B30000F900FBE0F901F90189526E8230F029666
:101B4000A11DB11DD2CF1F920F920FB60F9211247B
:101B50002F933F934F935F936F937F938F939F93B5
:101B6000AF93BF93EF93FF938CEC92E00E944504F8
:101B7000FF91EF91BF91AF919F918F917F916F9165
:101B80005F914F913F912F910F900FBE0F901F903B
:101B900018951F920F920FB60F9211242F938F93C7
:101BA0009F93EF93FF93E091DC02F091DD0280813F
:101BB000E091E202F091E30282FD1BC090818091EE
:101BC000E5028F5F8F732091E602821741F0E0916A
:101BD000E502F0E0E453FD4F958F8093E502FF911D
:101BE000EF919F918F912F910F900FBE0F901F90AB
:101BF00018958081F4CF1F920F920FB60F92112487
:101C00002F933F934F935F936F937F938F939F9304
:101C1000AF93BF93EF93FF938091B900887F803695
:101C200009F44AC0F0F5883209F4A7C018F58031EC
:101C300009F49BC0B8F4882309F4F9C0883009F48A
:101C400094C0FF91EF91BF91AF919F918F917F9140
:101C50006F915F914F913F912F910F900FBE0F9019
:101C60001F901895883109F488C0803251F780930D
:101C7000730214C0803409F49DC040F48033B9F37A
:101C80008833F9F68093730285ECB0C0803509F48F
:101C900085C0883509F496C0883499F60E94210DD4
:101CA000D0CF883909F48CC038F5883729F050F442
:101CB000883611F0803729F683E080937402109201
:101CC000720257C0883809F47BC0803919F0803817
:101CD00009F0B7CF80917202803208F071C0E091B4
:101CE000720281E08E0F809372028091BB00F0E05F
:101CF000EE5AFD4F80833DC0803B39F0E0F4803ADE
:101D000009F479C0883A09F09CCF84E0809374028A
:101D10001092510210925002E0919C02F0919D02AB
:101D200009958091500281110FC081E0809350028B
:101D30001092300209C0803C09F4A6CF883C09F417
:101D4000A3CF883B09F07DCFE091510281E08E0F57
:101D500080935102F0E0E05DFD4F80818093BB00F5
:101D6000909151028091500229C0809199028093F4
:101D7000BB0085EC8093BC0064CF90919802809169
:101D80009702981758F5E091980281E08E0F8093A2
:101D90009802F0E0E958FD4F8081E9CFE091980288
:101DA00081E08E0F809398028091BB00F0E0E958AB
:101DB000FD4F808390919802809197029817C8F206
:101DC00085E8D8CFE091980281E08E0F8093980249
:101DD0008091BB00F0E0E958FD4F8083809176024E
:101DE00081115CCF81E08093750284EA8093BC000E
:101DF0001092740226CF85EC8093BC00109274027E
:101E000080917202803230F4E0917202F0E0EE5A7A
:101E1000FD4F10826091720270E0E0919A02F091A1
:101E20009B0282E592E00995109272020ACF10920D
:101E3000730234CF1F920F920FB60F9211242F937B
:101E40003F934F935F936F937F938F939F93AF9342
:101E5000BF93EF93FF93809176030E948501982FA3
:101E600040917B0350917C034F5F5F4F50937C0305
:101E700040937B032091790330917A032536310515
:101E800030F081E08093470483E080937503809174
:101E90007503811138C0911107C04436510508F50A
:101EA00010927C0310927B0380917803882341F089
:101EB00080917703911167C061E0811167C02D9A0D
:101EC000FF91EF91BF91AF919F918F917F916F9112
:101ED0005F914F913F912F910F900FBE0F901F90E8
:101EE00018951092470421E030E030937A03209354
:101EF000790350937E0340937D0310927C031092EC
:101F00007B0381E019C0809175038130C1F4913069
:101F100059F6B9016F5F7F4F70937A03609379032D
:101F2000220F331FF901E358FC4F51834083109275
:101F30007C0310927B0382E080937503B5CF809180
:101F400075038230B9F491110FC0B9016F5F7F4FF3
:101F500070937A0360937903220F331FF901E358DA
:101F6000FC4F51834083C9CF4536510508F49CCFBF
:101F700083E0E2CF80917503833009F095CF9923F8
:101F800009F48ECF91CF882321F060E00E94AE014A
:101F900097CF2D9895CFECECF2E01382128288EE69
:101FA00093E0A0E0B0E084839583A683B78323E128
:101FB00031E03183208325EC30E03587248724EC21
:101FC00030E03787268720EC30E0318B208B21EC06
:101FD00030E0338B228B22EC30E0358B248B26ECE7
:101FE00030E0378B268B118E128E138E148EE9E61D
:101FF000F3E01382128284839583A683B78385E2FC
:1020000091E091838083E2E7F4E01382128287E318
:1020100091E09183808387E2848380E1818782E0FD
:1020200082871386AFE5B4E084E015968C9315970C
:102030008BE016968C931697EEEBF0E0E4911796F2
:10204000EC931797EAEAF0E0E4911896EC9318976E
:1020500040E85EE360E070E01D964D935D936D9304
:102060007C935097E5E7F3E083E081831382EAE411
:10207000F4E086E0808387E0818385E08283F093CB
:102080004904E09348040895CF93DF93CDB7DEB7BA
:102090002E970FB6F894DEBF0FBECDBF789484B5EF
:1020A000826084BD84B5816084BD85B5826085BD54
:1020B00085B5816085BD80916E00816080936E00E2
:1020C00010928100809181008260809381008091D4
:1020D0008100816080938100809180008160809385
:1020E00080008091B10084608093B1008091B00045
:1020F00081608093B00080917A00846080937A0040
:1021000080917A00826080937A0080917A00816069
:1021100080937A0080917A00806880937A00109290
:10212000C100E091DC02F091DD0212E01083E09149
:10213000D802F091D9021082E091DA02F091DB022C
:102140008FEC80831092E402E091E002F091E102D2
:1021500086E08083E091DE02F091DF028081806181
:102160008083E091DE02F091DF02808188608083CD
:10217000E091DE02F091DF02808180688083E0914F
:10218000DE02F091DF0280818F7D8083C090480461
:10219000D090490460E0D60111968C910E94DC0138
:1021A00060E0F60180810E94DC0160E0D6011296B9
:1021B0008C910E94DC0162E0809164040E94DC0149
:1021C0000E948102605D77408109910960936804F3
:1021D0007093690480936A0490936B0487E38093FF
:1021E0007104F8941093B0001093B10084E68093CA
:1021F000B3001092B200109370007894109275039F
:1022000060E0809176030E94DC011092A10210929E
:10221000A00210929F0210929E020E94FB0483E98A
:1022200093E090939D0280939C0284E993E09093C5
:102230009B0280939A021092770480917C048230F2
:1022400018F098E09093770480937A0462E370E04A
:1022500080E090E00E944F0260917D0482E794E06C
:102260000E94C00568EE73E080E090E00E944F029B
:1022700060E382E794E00E949E070BE416E4C80145
:102280000197F1F760E382E794E00E949E07C8019E
:102290000197F1F760E382E794E00E949E0783E5EF
:1022A00092E00197F1F760E282E794E00E949E07D6
:1022B00060917704606240E082E794E00E94B70793
:1022C00084E08093780440E06CE082E794E00E9430
:1022D000B7070E94CE0782E08093790440E066E071
:1022E00082E794E00E94B70740E062E082E794E072
:1022F0000E94B7078BE39FE10197F1F788E0809395
:102300007D0460E082E794E00E94C00560E081E126
:102310000E94DC0180E00E94F2078FE991E00E94B8
:10232000FC0668EE73E080E090E00E944F0290E0CF
:1023300080E00E94D9078CEC92E00E942504892B52
:1023400009F4D5C118861F821A8619861C861B8639
:102350006AE771E0CE0107960E94860C0E94E503B1
:1023600097FD1EC08A309105D9F089831A820B85AA
:102370001C850F5F1F4FB801CE0107960E944C0CC1
:10238000882361F32F8138858B859C85BE016F5F23
:102390007F4F820F931F0E942F201C870B87DECF59
:1023A000AF80B884A114B10439F00B851C85650198
:1023B0000115110509F012C11A8219821C821B82B3
:1023C0001E821D8260EB71E0CE0101960E94860C98
:1023D0004D815E818B859C858417950770F08F8178
:1023E0009885009751F069817A816115710529F00E
:1023F0000E94362011E0892B09F010E0CE010196F1
:102400000E94190D112309F46EC128E030E044E068
:1024100050E0BE01695F7F4FCE0101960E94B10C72
:10242000CE0101960E94410C4B01CE0101960E9403
:10243000190D2BE030E049E050E0BE01695F7F4FAD
:10244000CE0101960E94B10CCE0101960E94410C72
:10245000062FCE0101960E94190D2EE030E04CE0CF
:1024600050E0BE01695F7F4FCE0101960E94B10C22
:10247000CE0101960E94410C162FCE0101960E94BA
:10248000190D21E130E04FE050E0BE01695F7F4F60
:10249000CE0101960E94B10CCE0101960E94410C22
:1024A000F62ECE0101960E94190D24E130E042E1A2
:1024B00050E0BE01695F7F4FCE0101960E94B10CD2
:1024C000CE0101960E94410CD62ECE0101960E94AB
:1024D000190D27E130E045E150E0BE01695F7F4F13
:1024E000CE0101960E94B10CCE0101960E94410CD2
:1024F000C62ECE0101960E94190DB0ED8B16B7E0E5
:102500009B0610F0E0E38E0E6EEB809148049091F4
:1025100049040E94100BAAE0BA2E8C2D6B2D0E944C
:10252000171E682F660F680F660F6C0D40E08091D4
:102530004804909149040E94E40A8D2D6B2D0E945D
:10254000171E682F660F680F660F6D0D40E08091B3
:102550004804909149040E94E40A8F2D6B2D0E943B
:10256000171E682F660F680F660F6F0D40E0809191
:102570004804909149040E94E40A812F6B2D0E9427
:10258000171E682F660F680F660F610F40E080917D
:102590004804909149040E94E40A802F6B2D0E9408
:1025A000171E682F660F680F660F600F40E080915E
:1025B0004804909149040E94E40A682D70E0212F9C
:1025C00030E0E8E6F0E081E0801708F03DC094914B
:1025D000290F311D8F5F3196F7CF64014601BFEFA0
:1025E0008B1A9B0AF6018081082E000C990B0E9421
:1025F000181B892B91F7015011090A0D1B1DD801D9
:102600008C91082E000C990B0E94181B892B31F01D
:102610000C151D0518F001501109F1CF0F5F1F4F68
:10262000A8014C195D095C874B87AC14BD0420F4EC
:10263000B601C5010E942620EF81F8858B859C8517
:10264000E80FF91F1082B8CE033028F0882D837070
:1026500011F42F5F3F4FCB01039696958795969582
:102660008795ADE6B1E06A9FA0016B9F500D7A9F00
:10267000500D11244B5F5F4F840F951F820F931FE6
:1026800067E070E00E94231E682F811101C067E09F
:1026900040E080914804909149040E94E40A882D0A
:1026A0006AE00E94171E682F660F680F660F680D9C
:1026B00040E080914804909149040E94E40A40E07F
:1026C00060E080914804909149040E94E40AE091FE
:1026D0004804F091490460E082810E94AE018BE0E1
:1026E00090E00197F1F7CE0107960E94190D0E9424
:1026F00081022B013C0180917503833009F06EC685
:10270000EDE7F3E0F0935B04E0935A0480917903E2
:1027100090917A0390935D0480935C0421E0309162
:102720004704311101C020E020935E041092500450
:1027300010924F041092590420917F03309180032E
:10274000275831092E353105E0F0F12C82E1EDE416
:10275000F4E0A1EBB2E001900D928A95E1F7F1105F
:1027600085C68091790390917A038032910509F4AE
:1027700068C08036910509F0D5C073E0872E912C92
:1027800063C08430910549F5809181039091820363
:1027900080974797D0F6809183039091840309979F
:1027A000099798F610925604109255042FEF3FEFB8
:1027B000A901209351043093520440935304509341
:1027C000540481E08093590489E090E090934E0492
:1027D00080934D04FF24F394B9CF8434910508F419
:1027E000B4CF8091810390918203815491098F9796
:1027F00008F0ABCF00E312E02AE936E040E352E014
:1028000063E080E20E940507F82E882309F49DCF3B
:10281000E0915A04F0915B04EA57FF4F8081918167
:102820000997099708F091CF40E250E05093560481
:102830004093550489E090E090934E0480934D04BA
:1028400085CF88248394912CE0915A04F0915B0405
:10285000828193810397059708F064C084819581F4
:102860008931910508F458C08C9708F05BC0332477
:102870003394A12CB12C65011E861D860BE113E05B
:102880002DE037E04AEF50E0632D85E00E94050718
:10289000882309F447C08091510490915204909389
:1028A000500480934F042DE037E04AEF50E065E09C
:1028B000630D88E00E9405078823A1F1409151042F
:1028C000509152046091530470915404A114B104C6
:1028D000C104D10429F04A155B056C057D0511F58D
:1028E0005A016B01A094AD85BE851196BE87AD8758
:1028F000B6E03B0EED85FE858E169F0609F0BECF35
:102900002FE030E0309356042093550430934E046A
:1029100020934D04F82E06C08A30910518F0439795
:1029200008F4A5CF82E1EDE4F4E0A1EBB2E0019080
:102930000D928A95E1F7F11099C540915C04509190
:102940005D044032510508F45AC0E0915A04F091F8
:102950005B0486AD97AD0397059708F050C084AD32
:1029600095AD0897099708F04AC020813181A2E30C
:10297000B0E00E94F01C6135734C810591050CF4A8
:10298000ADC0DF01D49690E080E02D913C9111978D
:102990002831310508F497C02B32310580F5880FB6
:1029A000991F81601497EA17FB0779F7ADE0B0E053
:1029B000B0935604A09355049C01207233272150F4
:1029C00031093093500420934F0425E09695879564
:1029D0002A95E1F7B0E0A0E080935104909352046F
:1029E000A0935304B093540480E190E090934E047C
:1029F00080934D0481E080930001FF24F39482E1F1
:102A0000EDE4F4E0A1EBB2E001900D928A95E1F7DC
:102A1000F1102CC54A31510518F1E0915A04F0919A
:102A20005B04808191810A9708F078C01092560467
:102A3000109255048FEF9FEFDC0180935104909327
:102A40005204A0935304B093540481E0809359043A
:102A5000AFEFBFEFB0934E04A0934D04FF24F39467
:102A600082E1EDE4F4E0A1EBB2E001900D928A95F1
:102A7000E1F7F110FBC44A31510508F4DEC0E091E2
:102A80005A04F0915B0480819181409708F089C0DD
:102A900010925604109255048FEF9FEFDC01809343
:102AA000510490935204A0935304B093540481E0D2
:102AB000809359048EE090E090934E0480934D04EF
:102AC000FF24F394BAC02830310508F498CF21319F
:102AD000310508F094CF880F991F64CF80910001D1
:102AE000811119C010925604109255048FEF9FEF78
:102AF000DC018093510490935204A0935304B0934B
:102B0000540481E0809359048FE090E090934E0448
:102B100080934D0472CF1092000171CF8281938116
:102B200085974B9708F09CCF8481958107970797ED
:102B300008F096CF812C912C540183E090E02681FF
:102B400037812331310508F443C52232310508F0BD
:102B500087CF880C991CAA1CBB1C689480F8208520
:102B60003185275031092730310508F079CF029699
:102B700034968417950718F38CE090E090935604F0
:102B8000809355048092510490925204A092530471
:102B9000B092540481E190E090934E0480934D04F0
:102BA0005DCF82819381C597879708F046C0848165
:102BB0009581C597879708F040C06091790370911F
:102BC0007A0383E090E0812C912C54019C012F5FCB
:102BD0003F4F2617370718F5268137812C503109CA
:102BE0002B303105E0F4208531852532310560F048
:102BF0002034310510F5880C991CAA1CBB1C689464
:102C000080F802963496E2CF2B303105B0F02631B1
:102C1000310598F4880C991CAA1CBB1CF2CF0197B3
:102C20009695879590935604809355040C9708F0D9
:102C30006CC0109256041092550482E1EDE4F4E069
:102C4000A1EBB2E001900D928A95E1F7F1100EC46C
:102C500018861F8281E090E09A8389834D30510568
:102C600008F479C049E753E0BE01695F7F4FCE01A8
:102C700001960E94CA00892B09F06DC049E753E014
:102C8000BE01695F7F4FCE0101960E94CA00019785
:102C900009F061C049E753E0BE01695F7F4FCE0193
:102CA00001960E94CA008C01892B09F054C0812C26
:102CB000912C540120915C0430915D0489819A81AA
:102CC00082179307A0F549E753E0BE01695F7F4F84
:102CD000CE0101960E94CA006C0149E753E0BE0193
:102CE000695F7F4FCE0101960E94CA00A1E0CA161B
:102CF000D104A1F4892B79F5880C991CAA1CBB1C62
:102D0000689480F80F5F1F4FD5CF80925104909246
:102D10005204A0925304B0925404CCCECD28D9F4DE
:102D20000197C9F4880C991CAA1CBB1CEBCF10930B
:102D30005604009355048092510490925204A0923C
:102D40005304B09254048BE090E090934E0480932F
:102D50004D04FF24F39482E1EDE4F4E0A1EBB2E052
:102D600001900D928A95E1F7F11080C318861F82B9
:102D700081E090E09A83898380915C0490915D0466
:102D8000892B09F480C0E0915A04F0915B048281A0
:102D9000938189974E9708F076C082E090E09A83FD
:102DA0008983848195810B970A9708F06CC083E032
:102DB00090E09A8389834CEB51E0BE01695F7F4FBD
:102DC000CE0101960E94CA001C01892B09F05BC04C
:102DD0004CEB51E0BE01695F7F4FCE0101960E942E
:102DE000CA00019709F04FC0812C912C5401209109
:102DF0005C0430915D0489819A818217930708F001
:102E00003EC24CEB51E0BE01695F7F4FCE0101969F
:102E10000E94CA006C01B3E02B16310441F14CEB67
:102E200051E0BE01695F7F4FCE0101960E94CA004A
:102E30008C01E3E02E16310461F44CEB51E0BE014D
:102E4000695F7F4FCE0101960E94CA0008171907DB
:102E5000D1F4C114D10409F404C2CA94CD2899F460
:102E6000012B89F4880C991CAA1CBB1C04C24CEBD6
:102E700051E0BE01695F7F4FCE0101960E94CA00FA
:102E8000C816D90661F282E1EDE4F4E0A1EBB2E00C
:102E900001900D928A95E1F7F110E8C280915C04EF
:102EA00090915D0482369105C8F1E0915A04F09149
:102EB0005B0482819381C597879780F58481958192
:102EC0004B97459758F500E911E02CED34E046EFBB
:102ED00051E063E080E10E9405078823F9F08091CA
:102EE0005104909152049093500480934F042CED20
:102EF00034E046EF51E063E180E20E940507882359
:102F000069F02AE030E030934E0420934D0420E332
:102F100030E03093560420935504F82E82E1EDE41E
:102F2000F4E0A1EBB2E001900D928A95E1F7F11087
:102F30009DC28091790390917A03CC97B0F1E09192
:102F40005A04F0915B04828193818E5791098835F0
:102F5000910558F584819581CD978B9730F506E2E0
:102F600012E020E436E048E552E063E08CE10E94A4
:102F700005078823D1F0E0915A04F0915B04EA58E8
:102F8000FF4F208131812A5031092930310568F401
:102F90002CE130E0309356042093550426E030E0D5
:102FA00030934E0420934D04F82E82E1EDE4F4E0DA
:102FB000A1EBB2E001900D928A95E1F7F11056C2B3
:102FC00040915C0450915D04E0915A04F0915B04DF
:102FD000828193814232510509F066C19C012A50D9
:102FE00031092930310508F05FC1DF01AE5BBF4F09
:102FF0002D913C912A5031092930310508F054C1F6
:1030000010925604109255048FEF9FEFDC018093CD
:10301000510490935204A0935304B093540481E05C
:103020008093590484E090E090934E0480934D0483
:10303000FF24F39482E1EDE4F4E0A1EBB2E001902F
:103040000D928A95E1F7F11011C2E0915A04F091C6
:103050005B048281938184549109C19760F58091CA
:10306000790390917A038430910509F056C18481E7
:10307000958180974797F8F48681978109970997FA
:10308000D0F410925604109255042FEF3FEFA9018F
:1030900020935104309352044093530450935404AA
:1030A00081E0809359044DE050E050934E044093EA
:1030B0004D04FF24F39482E1EDE4F4E0A1EBB2E0EF
:1030C00001900D928A95E1F7F110D0C180915C04D6
:1030D00090915D0486349105F0F1E0915A04F091ED
:1030E0005B04828193810C970B97A8F5848195816D
:1030F0000997099780F5868197818C974F9758F5A6
:103100008085918589974D9730F50EEE12E026E681
:1031100038E04EEE52E065E080E20E940507882329
:10312000D1F0E0915A04F0915B04E657FF4F208103
:1031300031812C5031092B30310568F420E230E028
:10314000309356042093550422E130E030934E042E
:1031500020934D04F82E82E1EDE4F4E0A1EBB2E01F
:1031600001900D928A95E1F7F11080C18091790369
:1031700090917A03809739F5E0915A04F0915B04BD
:103180008281938105970797F0F48481958109974F
:103190000997C8F40EEE12E028E037E04CE251E067
:1031A00063E08EE00E940507882369F02EE030E09E
:1031B000309356042093550422E030E030934E04BF
:1031C00020934D04F82E82E1EDE4F4E0A1EBB2E0AF
:1031D00001900D928A95E1F7F11048C1C0905C040E
:1031E000D0905D0436E0C316D10408F4EAC0209004
:1031F0005A0430905B0442E0240E311C25EC3DE97A
:103200004CE151E803E010E08AE0F82ED101149679
:103210008D919C91F101619171911F01F89EF001D6
:10322000F99EF00D1124DB01AA0FBB1FAA0FBB1FD3
:10323000AA0FBB1FEA17FB0708F495C0F69ED00142
:10324000F79EB00D112463E0880F991F6A95E1F78E
:10325000E2E0F0E0A817B90708F487C0E1E0F0E089
:1032600084C00130110509F00ECE880C991CAA1CEF
:10327000BB1C689480F82FEF221A320AB8CD309226
:103280005604209255048092510490925204A092C8
:103290005304B09254048CE090E090934E048093D9
:1032A0004D04FF24F394EFCD8E5791098835910595
:1032B00008F0C0CE4432510508F4BCCE848195811B
:1032C000CD978B9708F0B6CE06E212E020E436E008
:1032D00048E552E063E080E10E940507882309F495
:1032E000A9CEE0915A04F0915B04EA5BFF4F208184
:1032F00031812A5031092930310508F09BCE20E177
:1033000030E0309356042093550424E030E03093AD
:103310004E0420934D04F82E8DCE8434910508F48C
:10332000CACE84819581815491098F9708F0C3CECC
:1033300000E312E020E436E040E352E063E080E2A4
:103340000E940507882309F4B6CEA0E2B0E0B0934E
:103350005604A0935504EDE0F0E0F0934E04E093A2
:103360004D04F82EA8CEF0E0E0E063E971E080E0E3
:1033700091E00E945D1C4F01FF0FAA08BB08A50148
:10338000940126273727482759270F5F1F4F0C1511
:103390001D0509F03BCF2093510430935204409314
:1033A00053045093540420E230E0309356042093A9
:1033B00055044FEF5FEF50934E0440934D04FF24AC
:1033C000F39482E1EDE4F4E0A1EBB2E001900D9220
:1033D0008A95E1F7F1104AC0109275038091A90215
:1033E0009091AA02A091AB02B091AC02A30192010C
:1033F000281B390B4A0B5B0BDA01C901843F914052
:10340000A105B105E8F04092A9025092AA0260928B
:10341000AB027092AC028091A7029091A802009733
:1034200009F082C080E00E94F20785EB91E00E94E3
:10343000FC0681E00E94F20786EC91E00E94FC0607
:103440006AE070E080E090E00E944F0280E090E04F
:10345000892B11F40C949B110E943104882311F4E0
:103460000C949B110E9400000C949B118091B5025A
:103470009091B602A091B702B091B8028F3F5FEF72
:103480009507A507B507B1F48091AD029091AE0202
:10349000A091AF02B091B002109275038739E8E6AF
:1034A0009E07EFEFAE07B10571F481E090E00E9456
:1034B000D90794CF8093AD029093AE02A093AF0250
:1034C000B093B002E9CF8736F8E99F07FFEFAF0767
:1034D000B10519F482E090E0EACF8F3420EB920737
:1034E0002FEFA207B10519F483E090E0E0CF8F3C05
:1034F00030E393073FEFA307B10519F484E090E0B0
:10350000D6CF873E48E194074FEFA407B10519F4E1
:1035100085E090E0CCCF853B9A44AF4FB10509F0F0
:103520005DCF90E080E0C3CF8130910519F40E9417
:103530003A0B86CF8230910529F4C301B2010E9473
:1035400007097ECF8330910519F40E94960A78CF3F
:103550008430910519F40E94700A72CF059709F022
:103560006FCF8091A3029091A402A091A502B09187
:10357000A6020097A105B10529F0481659066A066A
:103580007B06C0F0D301C2018854944FAF4FBF4FA8
:103590008093A3029093A402A093A502B093A602E5
:1035A0008091A20290E00196837099278093A202F5
:1035B0000E94CE078091A202882309F4B8CF8130FF
:1035C00009F4BBCF823009F2833009F039CFC3CF81
:1035D0002A30310508F444CA880C991CAA1CBB1C6B
:1035E000BECA1F93FC0199278827BC01E89411915A
:1035F0001032E9F3193010F01E30C8F31B3251F0CD
:103600001D3249F4689406C00E94211B610F711D90
:10361000811D911D119110531A30B0F33EF4909515
:103620008095709561957F4F8F4F9F4F1F910895A3
:1036300091110C94361B803219F089508550C8F7CF
:103640000895592F482F372F262F660F771F881F71
:10365000991F660F771F881F991F620F731F841FA2
:10366000951F660F771F881F991F08959927882730
:1036700008950E947B1B08F481E00895E89409C036
:1036800097FB3EF490958095709561957F4F8F4F95
:103690009F4F9923A9F0F92F96E9BB279395F695AB
:1036A000879577956795B795F111F8CFFAF4BB0F29
:1036B00011F460FF1BC06F5F7F4F8F4F9F4F16C08D
:1036C000882311F096E911C0772321F09EE8872F17
:1036D000762F05C0662371F096E8862F70E060E0D3
:1036E0002AF09A95660F771F881FDAF7880F96954C
:1036F000879597F90895990F0008550FAA0BE0E8F0
:10370000FEEF16161706E807F907C0F012161306A3
:10371000E407F50798F0621B730B840B950B39F4E3
:103720000A2661F0232B242B252B21F408950A2649
:1037300009F4A140A6958FEF811D811D08950E9477
:10374000B21B0C94231C0E94151C38F00E941C1CF8
:1037500020F0952311F00C940C1C0C94121C1124D5
:103760000C94571C0E94341C70F3959FC1F3950F65
:1037700050E0551F629FF001729FBB27F00DB11DF5
:10378000639FAA27F00DB11DAA1F649F6627B00D85
:10379000A11D661F829F2227B00DA11D621F739F6E
:1037A000B00DA11D621F839FA00D611D221F749F7C
:1037B0003327A00D611D231F849F600D211D822FC3
:1037C000762F6A2F11249F5750409AF0F1F08823EA
:1037D0004AF0EE0FFF1FBB1F661F771F881F915017
:1037E0005040A9F79E3F510580F00C940C1C0C949E
:1037F000571C5F3FE4F3983ED4F386957795679521
:10380000B795F795E7959F5FC1F7FE2B880F911D40
:103810009695879597F9089597F99F6780E870E0E6
:1038200060E008959FEF80EC089500240A94161636
:10383000170618060906089500240A94121613069E
:10384000140605060895092E0394000C11F488232C
:1038500052F0BB0F40F4BF2B11F460FF04C06F5F48
:103860007F4F8F4F9F4F089557FD9058440F551F1E
:1038700059F05F3F71F04795880F97FB991F61F0F2
:103880009F3F79F087950895121613061406551F69
:10389000F2CF4695F1DF08C0161617061806991FD5
:1038A000F1CF86957105610508940895E894BB27CA
:1038B00066277727CB0197F90895DB018F939F93B4
:1038C0000E94AE1CBF91AF91A29F800D911DA39F3E
:1038D000900DB29F900D11240895A1E21A2EAA1BFB
:1038E000BB1BFD010DC0AA1FBB1FEE1FFF1FA217B0
:1038F000B307E407F50720F0A21BB30BE40BF50BAD
:10390000661F771F881F991F1A9469F76095709535
:10391000809590959B01AC01BD01CF010895052EC6
:1039200097FB1EF400940E94A61C57FD07D00E942E
:103930006D1C07FC03D04EF40C94A61C50954095CA
:10394000309521953F4F4F4F5F4F0895909580954B
:10395000709561957F4F8F4F9F4F08950E94F01C87
:10396000A59F900DB49F900DA49F800D911D1124D3
:1039700008952F923F924F925F926F927F928F9213
:103980009F92AF92BF92CF92DF92EF92FF920F93EE
:103990001F93CF93DF93CDB7DEB7CA1BDB0B0FB6F8
:1039A000F894DEBF0FBECDBF09942A8839884888B5
:1039B0005F846E847D848C849B84AA84B984C8844B
:1039C000DF80EE80FD800C811B81AA81B981CE0F42
:1039D000D11D0FB6F894DEBF0FBECDBFED01089527
:1039E000A29FB001B39FC001A39F700D811D112440
:1039F000911DB29F700D811D1124911D0895505885
:103A0000BB27AA270E94171D0C94231C0E94151C7B
:103A100038F00E941C1C20F039F49F3F19F426F462
:103A20000C94121C0EF4E095E7FB0C940C1CE92F8F
:103A30000E94341C58F3BA1762077307840795076E
:103A400020F079F4A6F50C94561C0EF4E0950B2E9C
:103A5000BA2FA02D0B01B90190010C01CA01A001E0
:103A60001124FF27591B99F0593F50F4503E68F13B
:103A70001A16F040A22F232F342F4427585FF3CF7C
:103A8000469537952795A795F0405395C9F77EF44D
:103A90001F16BA0B620B730B840BBAF09150A1F096
:103AA000FF0FBB1F661F771F881FC2F70EC0BA0F1C
:103AB000621F731F841F48F4879577956795B795A4
:103AC000F7959E3F08F0B0CF9395880F08F099279F
:103AD000EE0F9795879508950E94801D0C94231CE6
:103AE0000E941C1C58F00E94151C40F029F45F3FF6
:103AF00029F00C940C1C51110C94571C0C94121CA2
:103B00000E94341C68F39923B1F3552391F3951B5C
:103B1000550BBB27AA2762177307840738F09F5FEE
:103B20005F4F220F331F441FAA1FA9F335D00E2E5B
:103B30003AF0E0E832D091505040E695001CCAF7C8
:103B40002BD0FE2F29D0660F771F881FBB1F26178B
:103B500037074807AB07B0E809F0BB0B802DBF0162
:103B6000FF2793585F4F3AF09E3F510578F00C9431
:103B70000C1C0C94571C5F3FE4F3983ED4F38695DD
:103B800077956795B795F7959F5FC9F7880F911D52
:103B90009695879597F90895E1E0660F771F881F3E
:103BA000BB1F621773078407BA0720F0621B730BF1
:103BB000840BBA0BEE1F88F7E09508950E943C1C19
:103BC00088F09F5798F0B92F9927B751B0F0E1F0DE
:103BD000660F771F881F991F1AF0BA95C9F714C08E
:103BE000B13091F00E94561CB1E008950C94561C1F
:103BF000672F782F8827B85F39F0B93FCCF38695C7
:103C000077956795B395D9F73EF490958095709523
:103C100061957F4F8F4F9F4F08950E947B1B08F443
:103C20008FEF08950E947B1B880B990B0895991BB9
:103C300079E004C0991F961708F0961B881F7A95A3
:103C4000C9F780950895AA1BBB1B51E107C0AA1FA5
:103C5000BB1FA617B70710F0A61BB70B881F991F2D
:103C60005A95A9F780959095BC01CD0108950E94C1
:103C7000F01CB7FF0895821B930B0895EE0FFF1FF2
:103C80000590F491E02D09940F931F93CF93DF9348
:103C90008230910510F482E090E0E0918004F09190
:103CA000810430E020E0B0E0A0E0309799F42115E5
:103CB000310509F44AC0281B390B24303105D8F5E9
:103CC0008A819B816115710589F1FB019383828350
:103CD000FE0111C0408151810281138148175907AB
:103CE000E0F04817590799F4109761F012960C9379
:103CF000129713961C933296CF01DF91CF911F91AB
:103D00000F9108950093800410938104F4CF21153E
:103D1000310551F04217530738F0A901DB019A0130
:103D2000BD01DF01F801C1CFEF01F9CF909381040C
:103D300080938004CDCFFE01E20FF31F8193919316
:103D40002250310939832883D7CF20917E043091C6
:103D50007F04232B41F4209103013091040130931F
:103D60007F0420937E0420910101309102012115EE
:103D7000310541F42DB73EB7409105015091060140
:103D8000241B350BE0917E04F0917F04E217F307CA
:103D9000A0F42E1B3F0B2817390778F0AC014E5FBB
:103DA0005F4F2417350748F04E0F5F1F50937F0475
:103DB00040937E04819391939FCFF0E0E0E09CCF0D
:103DC000CF93DF930097E9F0FC01329713821282C0
:103DD000A0918004B0918104ED0130E020E01097C3
:103DE000A1F420813181820F931F20917E043091B4
:103DF0007F042817390709F061C0F0937F04E0932E
:103E00007E04DF91CF910895EA01CE17DF07E8F530
:103E10004A815B819E0141155105B1F7E901FB83A0
:103E2000EA8349915991C40FD51FEC17FD0761F43E
:103E3000808191810296840F951FE901998388837F
:103E4000828193819B838A83F0E0E0E012968D91DA
:103E50009C9113970097B9F52D913C911197CD0145
:103E60000296820F931F20917E0430917F042817C1
:103E7000390739F6309751F5109281041092800479
:103E8000B0937F04A0937E04BCCFD383C2834081D0
:103E90005181840F951FC817D90761F44E5F5F4F9A
:103EA00088819981480F591F518340838A819B8162
:103EB000938382832115310509F0B0CFF0938104FB
:103EC000E09380049ECFFD01DC01C0CF13821282FB
:103ED000D7CFB0E0A0E0EFE6FFE10C94BB1C8C0173
:103EE000009751F4CB010E94441E8C01C801CDB74C
:103EF000DEB7E0E10C94D71CFC01E60FF71F9C0134
:103F000022503109E217F30708F49DC0D901CD9181
:103F1000DC911197C617D70798F0C530D10530F35B
:103F2000CE0104978617970708F3C61BD70B229775
:103F3000C193D1936D937C93CF010E94E01ED6CFA5
:103F40005B01AC1ABD0A4C018C0E9D1EA091800431
:103F5000B0918104512C412CF12CE12C109731F5BA
:103F600080917E0490917F048815990509F05CC0CA
:103F70004616570608F058C0809101019091020141
:103F8000009741F48DB79EB740910501509106010D
:103F9000841B950BE817F90708F055C0F0937F04D0
:103FA000E0937E04F90171836083A0CF8D919C9191
:103FB000119712966C90129713967C901397A815F0
:103FC000B90559F56C0142E0C40ED11CCA14DB04DA
:103FD00020F1AC014A195B09DA011296159780F0BD
:103FE0006282738251834083D9016D937C93E11483
:103FF000F10471F0D7011396FC93EE93129776CFEC
:1040000022968C0F9D1FF90191838083F301EFCFDE
:10401000F0938104E093800469CF4816590608F4B0
:104020002C017D01D3019ACFCB010E94441E7C015B
:10403000009749F0AE01B8010E942620C8010E94F5
:10404000E01E870153CF10E000E050CFFB01DC0100
:1040500002C001900D9241505040D8F70895FB01E5
:10406000DC0101900D920020E1F70895FB01DC01D5
:104070004150504030F08D910190801919F400208A
:0C408000B9F7881B990B0895F894FFCF46
:10408C000100008204800000004000140054000075
:10409C0000000067049503C203B4042504D1031780
:1040AC00040000000091056405A8063A055D054A68
:1040BC00053B050000000023089503A806A7066E23
:1040CC00616E00696E66006F76660054656D703ABD
:1040DC002000430048756D203A200025005761747C
:1040EC006572204C766C20286D6D293A20002020BA
:1040FC0020202020202020202020004C696768747C
:10410C00204C6576656C3A2020202000252020204C
:10411C002020202020202020002D0030003A0053A9
:10412C00797374656D204C6F6164696E672E2E0017
:10413C00534554200057656174686572205374614F
:10414C0074696F6E2000526561647920746F20531E
:08415C00746172742E2E000044
:00000001FF
